:100000000C943E000C945B000C945B000C945B0021
:100010000C945B000C945B000C94FF000C945B0050
:100020000C945B000C945B000C945B000C945B00E4
:100030000C945B000C945B000C945B000C945B00D4
:100040000C945B000C945B000C945B000C945B00C4
:100050000C9490030C945B000C94E0030C945B00F4
:100060000C94F7050C945B000C945B000C945B0003
:100070000C945B000C945B000C945B0011241FBE7D
:10008000CFEFCDBFDFE3DEBF18E3A0E0B8E3E8E3E6
:10009000FCE102C005900D92AA32B107D9F728E31E
:1000A000AAE2B8E301C01D92A436B207E1F70E94AC
:1000B0009B020C94F00D0C940000CF92DF92EF9213
:1000C000FF920F931F93CF93DF934098E0E5F4E006
:1000D0008081877F8083489842980F2EF2E5EF2E2B
:1000E000F4E0FF2EF02DF7018081877F80834A980E
:1000F000419A01E514E0F8018081877F8083499A65
:10010000439AC3E5D4E08881877F88834B9886E053
:100110000E94C6036C01409A4898F701808188606C
:1001200080834A98F801808188608083499888811B
:10013000886088834B980E94D8038850960102C03B
:10014000369527958A95E2F7C901DF91CF911F91E6
:100150000F91FF90EF90DF90CF900895CF92DF92B4
:10016000EF92FF920F931F93CF93DF93409AE0E5B6
:10017000F4E08081877F8083489A429A0F2EF2E5CF
:10018000EF2EF4E0FF2EF02DF7018081877F808332
:100190004A98419801E514E0F8018081877F8083C7
:1001A00049984398C3E5D4E08881877F88834B983A
:1001B00087E00E94C6036C01409A4898F70180814D
:1001C000886080834A98F80180818860808349989C
:1001D0008881886088834B980E94D8038850960154
:1001E00002C0369527958A95E2F7C901DF91CF9134
:1001F0001F910F91FF90EF90DF90CF9008951F9285
:100200000F920FB60F9211242F933F934F935F934A
:100210006F937F938F939F93AF93BF93EF93FF93CE
:100220000E946F0382E080934301FF91EF91BF91A1
:10023000AF919F918F917F916F915F914F913F917E
:100240002F910F900FBE0F901F90189510922A3883
:10025000089508950E94500580933F380E945A05E2
:1002600010922A3808950E94500580933E380E94CB
:100270005A050895E0912A38E63024F080E00E9483
:1002800053050DC00E2E000CFF0BE55DF74C808171
:100290000E94530580912A388F5F80932A380E94EC
:1002A0005A0508958AE391E00E946E0583E391E088
:1002B0000E947B058AE291E00E94880586E291E037
:1002C0000E94950589E291E00E94A20589E291E0F1
:1002D0000E941B060E944A0508958230B9F028F456
:1002E000882341F0813061F008958330A9F0843093
:1002F000C9F008950D980C9A0B9A0A9A099A0895D4
:100300000D9A0C980B9A0A9A099A08950D9A0C9ACC
:100310000B980A9A099A08950D9A0C9A0B9A0A98C2
:10032000099A08950D9A0C9A0B9A0A9A09980895B9
:100330008230D1F028F4882349F0813071F02EC04A
:100340008430F9F0C0F0853011F128C086B182FB0D
:10035000992790F981E08927089586B186FB99272E
:1003600090F981E08927089586B185FB992790F956
:1003700081E08927089586B18095881F8827881F86
:10038000089586B18295817091E08927089586B19C
:1003900083FB992790F981E08927089580E00895EB
:1003A000E5EEFBE920E030E0A901918196130DC054
:1003B000908198130AC0F901EE0FFF1F4E0F5F1FC7
:1003C000FA01EC51F446808108952F5F3F4F339638
:1003D0002A31310549F78FEF0895683050F4FC0158
:1003E000808190E002C0959587956A95E2F78170CB
:1003F0000895603158F4FC01818190E0685002C09A
:10040000959587956A95E2F781700895683158F45B
:10041000FC01828190E0605102C0959587956A95B4
:10042000E2F781700895603258F4FC01838190E016
:10043000685102C0959587956A95E2F78170089595
:1004400080E008950F931F936830C8F401E010E036
:1004500020E030E0062E04C0000F111F221F331FC2
:100460000A94D2F70095FC012081022350E002C0DB
:10047000440F551F6A95E2F7402B408359C0603105
:10048000E0F470E06850710901E010E020E030E035
:10049000062E04C0000F111F221F331F0A94D2F72B
:1004A0000095FC012181022350E002C0440F551F3A
:1004B0006A95E2F7402B41833BC06831E0F470E07D
:1004C0006051710901E010E020E030E0062E04C028
:1004D000000F111F221F331F0A94D2F70095FC0151
:1004E0002281022350E002C0440F551F6A95E2F7B3
:1004F000402B42831DC06032D8F470E0685171090E
:1005000001E010E020E030E0062E04C0000F111FD3
:10051000221F331F0A94D2F70095FC012381022386
:1005200050E002C0440F551F6A95E2F7402B438309
:100530001F910F9108950E9487040E9413030E9447
:1005400052010E94BC03789410E0F12C812F0E948C
:100550006D01C0E06C2F812F0E94D001D82F8F3FFA
:1005600099F08C2F0E949801082F6D2F8BE298E351
:100570000E94ED01081741F0402F6D2F8BE298E3A8
:100580000E942202FF24F394CF5FC63019F71F5F49
:100590001530E1F60E943B0380913238813001F53D
:1005A000109232386AE18BE298E30E94ED01C82F85
:1005B00080E090E00E948103482F441F4427441F9D
:1005C000C41771F06AE18BE298E30E9422020E9454
:1005D0005D00CBE2D8E38C830E94AE008D830AC01D
:1005E0000E945D00CBE2D8E38C830E94AE008D8335
:1005F000FF2011F04D9A01C04D988FE493EC0197C4
:10060000F1F700C00000A0CF81E080933338089557
:10061000E0E4F1E0918192FDFDCF90E080934A010A
:1006200090934B01089580E20E940803E7E1F4E013
:100630008081877F80838081887F8460808385E15B
:1006400098E30E94AC0C8CE498E30E94F20C60E00A
:1006500070E085E198E30E94640D60E070E085E160
:1006600098E30E94830D47E458E360E080E098E35C
:100670000E94A906089580913438813051F464E0D5
:1006800073E085E198E30E94FC0C811102C0109296
:10069000343880913338813009F5109233380E9414
:1006A0002E0B81110AC080E098E30E94C8068823BF
:1006B00039F082E08093313803C081E08093313893
:1006C000E0910038F09101388081882324F481E0A2
:1006D00080933438089581E0809332380895809172
:1006E00046388F5F843118F480934638089510920D
:1006F000463881E08093343884E190E00E949E0681
:1007000008959C01220F331F820F931F880F991F9A
:10071000E0910438F0910538E80FF91F80810895C1
:100720001F920F920FB60F9211242F933F934F9366
:100730005F936F937F938F939F93AF93BF93EF9349
:10074000FF930E94C40DFF91EF91BF91AF919F91D4
:100750008F917F916F915F914F913F912F910F906A
:100760000FBE0F901F901895E0E4F6E082E18283BF
:1007700085E0808380E00895E0E4F6E08081816098
:100780008083089580914B0681700895E0E4F6E03F
:10079000868381E080870E94C2038823E1F3E0E43E
:1007A000F6E020893189938591609387C901089586
:1007B0008091400682FD02C08AE0089588E0089595
:1007C0001F920F920FB60F9211242F933F934F93C6
:1007D0005F936F937F938F939F93AF93BF93EF93A9
:1007E000FF93E0E4F6E0838581608387E09135380C
:1007F000F0913638309709F00995FF91EF91BF914C
:10080000AF919F918F917F916F915F914F913F91A8
:100810002F910F900FBE0F901F90189580E00895B4
:1008200040E068ED81E690E00E94200680E00895B7
:10083000789480E00895E0E1F4E08081886081931D
:10084000E83184E0F807C9F7E0E3F4E080818860EC
:100850008193E83384E0F807C9F7E0E5F4E08081AC
:1008600088608193E83584E0F807C9F70895E0E5EA
:10087000F4E08081887F846080838081877F8083AB
:10088000E1E5F4E08081887F846080838081877FD8
:1008900080834A98E2E5F4E08081886080838081EB
:1008A000877F808380818F7780838081887F80832A
:1008B0004B98E3E5F4E08081886080838081877FC6
:1008C000808380818F7780838081887F80830E946E
:1008D000B40308952898209AE0E3F4E08081877FAC
:1008E000808380818F7780838081887F808329982F
:1008F000219AE1E3F4E08081877F808380818F7794
:1009000080838081887F80830E942B0508950E94C8
:100910001B040D9A059AE5E1F4E08081877F8083CE
:1009200080818F7780838081887F80830C9A049A6E
:10093000E4E1F4E08081877F808380818F7780830A
:100940008081887F80830B9A039AE3E1F4E08081C1
:10095000877F808380818F7780838081887F808379
:100960000A9A029AE2E1F4E08081877F80838081A5
:100970008F7780838081887F8083099A019AE1E163
:10098000F4E08081877F808380818F77808380817E
:10099000887F80832A982298E2E3F4E0808188604F
:1009A000808380818F7780838081887F80832E9869
:1009B0002698E6E3F4E080818860808380818F77E9
:1009C00080838081887F80832D982598E5E3F4E0FB
:1009D00080818860808380818F7780838081887F19
:1009E00080832F982798E7E3F4E0808188608083F4
:1009F00080818F7780838081887F80832C98249862
:100A0000E4E3F4E080818860808380818F77808355
:100A10008081887F80832B982398E3E3F4E08081B2
:100A20008860808380818F7780838081887F8083C6
:100A30004D98459A0E9410040E9424060E94370493
:100A40000E9433060E9418040E9431060E946A0424
:100A50000E940E040895E0E1F8E086E4848783EEC6
:100A60008187109256381092573810925838109249
:100A7000593810925A3810925B38109254381092AC
:100A8000553810925E3810925F3810925C38109290
:100A90005D380895E0E1F8E08185816081870895FF
:100AA00080911D080895E0E1F8E0858782858360E4
:100AB0008287089583E080931A080895E0E1F8E0C2
:100AC0008385806C838782E082870895E09158381F
:100AD000F0915938309709F0099508958093583866
:100AE000909359380895E0915638F09157383097DF
:100AF00009F00995089580935638909357380895D2
:100B0000E0915A38F0915B38309709F009950895D3
:100B100080935A3890935B380895E0915438F0915F
:100B20005538309709F0099508958093543890937B
:100B300055380895E0915E38F0915F38309709F0AC
:100B40000995089580935E3890935F380895E091F9
:100B50005C38F0915D38309709F0099508958091DF
:100B60001B0883FF03C00E949A05089580911B080B
:100B700082FF03C00E94A705089580911B0886FF8D
:100B80000AC080911B0880FF06C00E94800581E09A
:100B900080932838089580911B088823D4F480918D
:100BA0001B0881FF13C080911B0884FF04C0809143
:100BB0002838882341F0109228380E94660583E087
:100BC00080931A0808950E945E0508950E94730597
:100BD000089580911B0886FF09C080911B0880FD45
:100BE00005C00E948D0582E080931A0808951F9227
:100BF0000F920FB60F9211242F933F934F935F9351
:100C00006F937F938F939F93AF93BF93EF93FF93D4
:100C10000E94AF05FF91EF91BF91AF919F918F918E
:100C20007F916F915F914F913F912F910F900FBEE8
:100C30000F901F90189580935C3890935D380895BD
:100C4000FC0164BF40830895E0E4F1E081818111FB
:100C5000FDCFE0E4F1E081E8808382E0828380E000
:100C6000089580E0089580E00895CF92DF92FF928A
:100C70000F931F93CF93DF93EC01AE81BF81EB0104
:100C8000CC0FDD1FC60FD71FCA0FDB1FFA80FC0178
:100C900044815581E6E0E69F9001E79F300D1124E5
:100CA0008A01020F131FF80122813381F90121818A
:100CB0003281F80104811581201B310BE8812E1B44
:100CC0003109EC01EA81FB8100811181FA0140E0E8
:100CD00050E04017510739F146175707F9F01296BF
:100CE0008C911297F8121AC0808185588230E8F0F2
:100CF000C480D58082819381EC0189819A81C81654
:100D0000D90660F48C199D09CC91D0E0C817D90799
:100D100028F48C1B9D0B2817390738F04F5F5F4F65
:100D200013963696D6CF80E001C081E0DF91CF9157
:100D30001F910F91FF90DF90CF9008952091373849
:100D400030913838820F931F80933738909338381A
:100D500008950097D9F041155105C1F026E0629F32
:100D6000B0011124DC011496ED91FC911597E60F6A
:100D7000F71F21E0208314968D919C911597FC011B
:100D8000E60FF71F4283538380E008958BE00895B8
:100D90002F923F924F925F926F927F928F929F928B
:100DA000AF92BF92CF92DF92EF92FF920F931F9379
:100DB000CF93DF93009709F47DC3EC01A12CB12CF4
:100DC000812C912C212CD12C33E0C32E45E8642EAC
:100DD00056E8752E67E0362E72E0472EE8E05E2E6C
:100DE000EA81FB81808191818816990608F0A5C16E
:100DF0007501EE0CFF1C0C811D810E0D1F1DD8010D
:100E00008C91843009F4A2C038F4823001F108F0EA
:100E100049C0813059F08AC1853809F4C2C086388A
:100E200009F4F6C0873009F081C137C1D8011296A4
:100E3000ED91FC91139780818E7109F069C14C92FC
:100E40008C819D81FC01EE0DFF1D518261C1F80175
:100E50002181222329F10280F381E02D253020F029
:100E600081819281D8010EC0D80114968D919C91F8
:100E70001597418152818417950769F048175907E2
:100E800030F4019714968D939C93159704C00196A6
:100E9000F801848395832150D80111962C9338C191
:100EA000F80131C1D80114962D913C9115971296F5
:100EB0008D919C911397DC0111964D915C91129745
:100EC0002417350709F432C18E819F8142175307D9
:100ED000E0F4241B350BDC01AA0DBB1D8C9190E0C6
:100EE000058002C0959587950A94E2F799272817FF
:100EF000390708F41BC18481882309F417C1F8015C
:100F00003082EA81FB8124811AC0FC01EA0DFB1DBD
:100F1000421B530B808190E04817590708F406C123
:100F20008281882331F0B401CE010E9435068111FF
:100F3000FDC0E4E0D801EC93EA81FB8122818C8141
:100F40009D81FC01EE0DFF1D2183E2C0D8011496A6
:100F50002D913C9115971296ED91FC9113978181FB
:100F600092818217930708F4D7C0EE81FF81EA0DC2
:100F7000FB1D821B930B208130E02817390708F0F6
:100F8000AFC08281882331F0B401CE010E943506C2
:100F90008111CCC0F8018181882309F467C0815098
:100FA000B6C0A881B981808513968C93EC81FD81B0
:100FB000EE0DFF1D44815581A281B38111968D9163
:100FC0009C91129784179507C0F0AE81BF81AA0D3E
:100FD000BB1D6C91262F30E011967C917F5F02C083
:100FE000359527957A95E2F7841B950B621B262F82
:100FF00030E02817390708F497C07082EA81FB8136
:1010000022818C819D81FC01EE0DFF1D218342C058
:10101000D80114966D917C9115971296ED91FC91E3
:101020001397218132812617370758F411968C9136
:101030001197811102C0CC9277C08150F801818351
:1010400073C0EE81FF81EA0DFB1D8081482F50E0C7
:1010500091819F5F02C0559547959A95E2F7261BAF
:10106000370B841B90E08217930760F4D8016C92D1
:10107000EA81FB8123818C819D81FC01EE0DFF1DA6
:10108000218352C0F8018181811102C0C0824CC00D
:1010900081508183222423943BC0D80114962D9142
:1010A0003C91159712968D919C911397DC011196A6
:1010B0008D919C9112978217930768F5281B390B25
:1010C000AE81BF81AA0DBB1D8C9190E0058002C04E
:1010D000959587950A94E2F799272817390718F408
:1010E000F801C0821AC0D80111968C911197811114
:1010F0000CC081E08C938C819D81FC01EE0DFF1D65
:101100000280F381E02DC08211C08150F8018183FB
:10111000DD24D3940BC0D801CC928C819D81FC013D
:10112000EE0DFF1D118202C022242394BFEF8B1A03
:101130009B0AE3E0AE0EB11C53CEE881F9818081B9
:1011400087FF23C040E050E020E030E0EA81FB81EF
:10115000808191812817390798F4EC81FD81E40F93
:10116000F51FA281B3818C9180FD05C09081977F8E
:1011700011F081608C932F5F3F4F4A5F5F4FE6CF46
:10118000E881F98180818F778083D11007C0E88161
:10119000F98121106FC080818E7F6EC0EA81FB8152
:1011A00081858823A1F3E881F9818081806880832B
:1011B000EA81FB818185813051F740E050E020E0F9
:1011C00030E096E0D92EEA81FB816081718126179B
:1011D0003707E8F60C811D81FA01EE0FFF1FE00FC3
:1011E000F11F8081982F977FA1F1853811F083300E
:1011F000B1F5EE80FF80D701A40FB51F1296BC9009
:10120000BB2039F180E090E0C12C86179707F8F4F5
:1012100028173907D1F0D89ED001D99EB00D1124DE
:10122000A00FB11FAC91A43011F0A63871F4DC010D
:10123000AA0FBB1FA80FB91FAE0DBF1D1296AC9110
:10124000BA1203C0CB01CC24C3940196DECFC110E7
:1012500006C00280F381E02D80818E7F05C0028070
:10126000F381E02D8081816080832F5F3F4F4D5F50
:101270005F4FA9CF808181608083809137389091C2
:101280003838E881F98121813281A90148535F4FC3
:101290004817590738F4821B930BAA24A394A3E0A0
:1012A000BA2E44C08217930710F080E004C1821B5D
:1012B000930B0197893C9105C0F3EFCF885C9109AE
:1012C000E881F9812181328128533F4F2183328384
:1012D0002381211196C02481222311F021502483DF
:1012E000E881F9812581222311F0215025838A800C
:1012F0009B80D40116962C91169721111BC08A80D1
:101300009B80F4012781211148C0EA81FB81238160
:10131000222361F020E030E0A0E0B0E0EA81FB8130
:1013200040815181A417B50708F46EC0893C91052E
:1013300028F6BBCF08811981F80124812111DFCF64
:10134000ED90FC9060E070E040E050E04E155F05ED
:10135000F1F0EC81FD81E60FF71F2081233011F0C1
:10136000283081F424813581C280D380D601119642
:10137000CD90DC9012972C153D0520F42F5F3F4F48
:10138000248335834F5F5F4F6A5F7F4FDFCFF40168
:101390002681D80114962C93B2CF08811981D801E7
:1013A00015962C912111B1CFE080F18060E070E0C2
:1013B00040E050E04E155F05F1F0EC81FD81E60F55
:1013C000F71F2081233011F0283081F424813581EA
:1013D000C280D380D6011196CD90DC901297C216B0
:1013E000D30620F421503109248335834F5F5F4FAA
:1013F0006A5F7F4FDFCFF4012781D80115962C93C8
:1014000084CF2150238381CFA901440F551FEC8144
:10141000FD81E40FF51F6081653809F047C06181E7
:10142000662319F06150618341C0A0826C817D8187
:10143000FB01E40FF51F0280F381E02DB082EE8105
:10144000FF81E20FF31FD280DD2081F140E050E008
:1014500000E010E0EA81FB816081718106171707C7
:1014600028F5EE81FF81E40FF51F6281D61219C0C5
:10147000BA01660F771FEC81FD814F01860E971E22
:10148000F401E280F380F701F080F0FE0AC0F4017D
:10149000A082EC81FD81E60FF71F0280F381E02D31
:1014A000B0820F5F1F4F4D5F5F4FD4CF11962D5FFE
:1014B0003F4F34CF8BE0DF91CF911F910F91FF9081
:1014C000EF90DF90CF90BF90AF909F908F907F90E4
:1014D0006F905F904F903F902F90089580913C388F
:1014E00090913D38A0916038B0916138ED91FC91B8
:1014F00011974081518125E0289FB001299F700DEF
:10150000112420E030E084179507A8F41496ED919B
:10151000FC911597E20FF31FE60FF71FE0812B5F99
:101520003F4FE0FD02C00196EECF80933C38909390
:101530003D3880E0089510923C3810923D3881E0AB
:101540000895BC01E0916038F09161389C0183E01E
:10155000220F331F8A95E1F7A281B381A20FB31F37
:1015600012969C91129713968C9190932A068093D1
:101570002B06A281B381A20FB31F9C9111968C916F
:10158000909326068093270695E0969FA001979F4B
:10159000500D1124A481B581A40FB51F13968C9111
:1015A00080931A06A481B581A40FB51F14968C915F
:1015B00080931B06A481B581A40FB51F8C9181FD7A
:1015C0009C9384819581DC01A40FB51F8C918C7153
:1015D00069F4A281B381A20FB31F1696AC91A295B4
:1015E000AF70B0E0AE5CB3468C9101C08FE38093E6
:1015F0001C06A281B381A20FB31F14968C918B316C
:1016000010F48C5F01C08FE180930506A281B38145
:10161000A20FB31F17968C9180930106A281B3810C
:10162000A20FB31F15968C9182958F708093190627
:1016300082819381FC01E20FF31F85818F708061AD
:10164000809302068091180683608093180681E8D3
:101650008093000681E08093080608953F924F92A0
:101660005F926F927F928F929F92AF92BF92CF9232
:10167000DF92EF92FF920F931F93CF93DF938091AE
:101680003B38882309F448C1A0916038B091613893
:10169000C0906238D090633800E010E060E070E005
:1016A000E12CF12C80E033243394D1E84D2E8824B2
:1016B0008A94992493946D907C901197F3012081E2
:1016C0003181E216F30608F023C1E6012991399130
:1016D0006E011496ED91FC911597E60FF71F40816E
:1016E0004C7150E0569547955695479541155105D3
:1016F00021F041305105B9F002C11296CD91DC9133
:101700001397C00FD11F4E814F709F81491710F45E
:10171000941B01C090E002C0369527959A95E2F798
:1017200021833283EDC012964D915C911397400F47
:10173000511FEA010F8002C0369527950A94E2F7FF
:1017400021833283A380B4802115D2E03D0720F0AD
:101750002F5F314091E005C0A401421B530B9A0159
:1017600090E0E3015A80D0E45D1205C036952795DC
:10177000992319F009C0992339F04FEFA416B40644
:1017800031F440828EE007C07724739401C0712C3D
:101790002A30310590F41496ED91FC911597E60FDF
:1017A000F71F908197FF30821496ED91FC91159769
:1017B000E60FF71FA382B482A3C0E501CD2FDD277A
:1017C000C295CF709C2FA50144275F70652EA5019F
:1017D000407F5527529542954F7045275F704527AA
:1017E0005A2D5F70A52EC43030F09370D695C795F2
:1017F000D695C7959C0F71103CC050E8550D5230DE
:1018000010F456E007C053E005C0951768F49F5FD9
:101810002F5C3109203D3105C0F706C0CFE06C16C2
:1018200049F063942551310926313105B8F7DFE0DD
:101830006D120EC0951720F49F5FD5E06D2E08C085
:10184000CFE06C2E05C04F3049F04F5F2250310978
:1018500023303105C0F74F3009F065C04FE0641602
:1018600081F1639445E05FC0992361F091502F5C52
:101870003109203D3105C0F705C0662041F06A946A
:101880002551310926313105C0F761100DC099236A
:1018900021F091505AE0652E07C0612C05C0442309
:1018A00041F041502250310923303105C0F7411138
:1018B00010C06620E9F16A944AE023303105C8F689
:1018C00008C059132FC02330310540F14FE0A42E3A
:1018D0004FE0943018F0990F990F9950C0E14C9F48
:1018E000A001112456294A29C92FD0E0DC2FCC278A
:1018F000D295D07F4C2B5D2B4383548301C0FFCF07
:10190000DFEFED1AFD0A6B5F7F4F085F1F4FD3CEED
:1019100092E090933B380EC083E00CC04FE02FE084
:10192000A22ED7CF4FE02330310508F073CFD1CFAF
:1019300040E0CFCFDF91CF911F910F91FF90EF90BB
:10194000DF90CF90BF90AF909F908F907F906F90DF
:101950005F904F903F900895CF93DF930097E1F110
:10196000DC01ED91FC91A081B18160E070E040E08C
:1019700050E020E030E04A175B0799F0EC01EA8183
:10198000FB81E60FF71FC081D1810280F381E02D3A
:10199000EC2BFD2B2E2B3F2B4F5F5F4F685F7F4F54
:1019A000EACF21153105D1F080913B38811108C073
:1019B000209322063093230681E080933B380AC0AF
:1019C00080912206822B8093220680912306832B0E
:1019D0008093230680E003C08BE001C082E0DF91AA
:1019E000CF910895009731F08093623890936338D7
:1019F00080E008958BE0089561157105A1F10097CD
:101A000091F120913B38222381F1243081F18093A0
:101A10006038909361386093393870933A381092F7
:101A20001806DC01ED91FC912281203439F420EC80
:101A30002093180620911806206205C0203841F432
:101A40002091180628622093180610921E0613C0D3
:101A5000213879F42091180628622093180626E888
:101A600020931E0608C08BE0089583E0089581E06E
:101A7000089582E0089510920006DC01ED91FC913A
:101A80008481803108F080E18093030681E08093B7
:101A90000B0680930A068093293810923C381092E6
:101AA0003D380E946E0A81110BC084E080933B3860
:101AB00080913C3890913D380E94A10A80E00895C1
:101AC00082E080933B3808950097C9F0DC01ED91E6
:101AD000FC911197208131812617370790F045E05E
:101AE000469F9001479F300D11241496ED91FC9173
:101AF0001597E20FF31F81E0808380E008958BE06B
:101B0000089582E00895FC01892BD1F1A081B18173
:101B10008D919C91119786179707A0F112969C9131
:101B20000480F581E02D903459F485E0869FD00142
:101B3000879FB00D1124AE0FBF1F84E392E00DC04C
:101B40009058923080F485E0869FD001879FB00D39
:101B50001124AE0FBF1F87E695E013968D939C93DB
:101B6000149780E001C082E095E0969F9001979FD6
:101B7000300D1124E20FF31F90819260908308953D
:101B80008BE0089582E008951092000640911006BF
:101B90005091110680913C3890913D389C01220F64
:101BA000331FE0916238F0916338E20FF31F4083F6
:101BB0005183019680933C3890933D380E946E0A81
:101BC000811109C084E080933B3880913C3890912A
:101BD0003D380C94A10AE0913938F0913A380994D3
:041BE000F894FFCFA7
:101BE40000000001010002020003030004000105DB
:101BF40001010602010703010800020901020A02A9
:101C0400020B03020C00030D01030E02030F030376
:101C14001000041101041202041303041404041533
:101C240000051601051702051803051904053F1CD4
:041C34000B05030198
:101C380040380B384E3808381401000100040005FC
:101C4800001405140123381B384738000008000029
:0A1C580003000401008030000101C8
:00000001FF
